:03000000021BB22E
:0C1BB200787FE4F6D8FD75816D02131BEE
:081B1700C291D2927F017E0011
:101B1F00E4FDFCC3ED9FEC9E5015E4FBFA0BBB00FC
:0F1B2F00010AEB64704A70F50DBD00010C80E4F3
:011B3E002284
:0E1B96008F80C290121B17C2927F03021B1F8A
:0E1BA4008F80D290121B17C2927F03021B1F6C
:061AEC008B578A5889594E
:101AF200E4F55AF55BAB57AA58A959855B82855A1A
:101B020083120E09FF600D121BA4055BE55B70E5F5
:041B1200055A80E10F
:011B160022AC
:101ABC008F528D538B548A558956EF64017008E50B
:101ACC0053540F4480800CE5526402700AE5535461
:101ADC000F44C0FF121B96AB54AA55A956021AEC20
:101B66007F327E00121B1F7F38121B967F0C121BC2
:101B7600967F01121B967F06121B967F80021B968C
:101A2400252E326600202020202020202020202067
:101A3400202020202000456D707479202020202053
:101A44002020202020200057617465723A20002055
:101A540025004C6F772020202020202020202020CB
:101A6400202000517561727465722066756C6C205B
:101A74002020200048616C662066756C6C20202054
:101A8400202020200053656D692066756C6C202031
:101A9400202020202000416C6D6F73742066756CCB
:101AA4006C20202020200046756C6C2020202020F3
:081AB40020202020202020004A
:101B8600758AF5758CFFD28C308DFDC28CC28D2284
:081BBE00758901C28DC28C2261
:081BC600D293121B86C2932288
:10131B00E4F525F52475236B752243F52975288093
:10132B00752782752643F52DF52C752BB4752A423E
:10133B00F546754702121B66121BBE121BC6309474
:10134B00FDD28C309403308DFAC28CE4F559F558EC
:10135B007557C07556C0FFFE7D207C411218737BFC
:10136B00807A5F791178471208F88F418E408D3F54
:10137B008C3EAF8CEFAD8AFCEC120B1C8F3D8E3C80
:10138B008D3B8C3AAF41AE40AD3FAC3EAB3DAA3C42
:10139B00A93BA83A1208F8E4FBFAF97840120A01C3
:1013AB008F3D8E3C8D3B8C3AAB3DAA3CA93BA83A7A
:1013BB00AF2DAE2CAD2BAC2A1208038F318E308D96
:1013CB002F8C2EAB2DAA2CA92BA82A120A01E4FBD9
:1013DB00FA79C878421208F88F358E348D338C32F7
:1013EB00AF29AE28AD27AC26AB31AA30A92FA82E3A
:1013FB001208F8AB25AA24A923A8221208F88F39C2
:10140B008E388D378C36AF29AE28AD27AC26AB2561
:10141B00AA24A923A8221208F8AB2DAA2CA92BA821
:10142B002A1208F8A804A905AA06AB07AF39AE38EB
:10143B00AD37AC36120A01E4FBFA79C878421208D0
:10144B00F87555FF75561A7557248F5B8E5A8D5943
:10145B008C587B007A007948120F08AC46AD47ECEC
:10146B00120B1CA804A905AA06AB07AF2DAE2CAD19
:10147B002BAC2A120803AB2DAA2CA92BA82A120AD3
:10148B0001E4FBFA79C878421208F88F458E448D37
:10149B00438C42E4FFFEFDFCAB35AA34A933A832E2
:1014AB00120A9E60474045E4FFFE7DC07C40AB3591
:1014BB00AA34A933A832120A9E50317BFF7A1A79CB
:1014CB00297D017F01121ABC7BFF7A1A79297D01D4
:1014DB007F02121ABCD2B1C2B2C2B3C2B4C2B5C27D
:1014EB00B6C2B77BFF7A1A793A0216B0E4FFFE7DDB
:1014FB00C07C40AB35AA34A933A832120A9E4045B2
:10150B00E4FFFE7DA87C41AB35AA34A933A8321287
:10151B000A9E50317BFF7A1A79297D017F01121ABD
:10152B00BC7BFF7A1A79297D017F02121ABCC2B1EA
:10153B00D2B2C2B3C2B4C2B5C2B6C2B77BFF7A1ABB
:10154B0079560216B0E4FFFE7DA87C41AB35AA3478
:10155B00A933A832120A9E4045E4FFFE7D187C4257
:10156B00AB35AA34A933A832120A9E50317BFF7ACD
:10157B001A79297D017F01121ABC7BFF7A1A79290E
:10158B007D017F02121ABCC2B1C2B2D2B3C2B4C2C5
:10159B00B5C2B6C2B77BFF7A1A79670216B0E4FF01
:1015AB00FE7D187C42AB35AA34A933A832120A9EB1
:1015BB004045E4FFFE7D7C7C42AB35AA34A933A8C1
:1015CB0032120A9E50317BFF7A1A79297D017F01F5
:1015DB00121ABC7BFF7A1A79297D017F02121ABC81
:1015EB00C2B1C2B2C2B3D2B4C2B5C2B6C2B77BFF2C
:1015FB007A1A79780216B0E4FFFE7D7C7C42AB351B
:10160B00AA34A933A832120A9E4044E4FFFE7DB0EF
:10161B007C42AB35AA34A933A832120A9E50307BD8
:10162B00FF7A1A79297D017F01121ABC7BFF7A1A86
:10163B0079297D017F02121ABCC2B1C2B2C2B3C2F8
:10164B00B4D2B5C2B6C2B77BFF7A1A79898056E499
:10165B00FFFE7DB07C42AB35AA34A933A832120A07
:10166B009E4072E4FFFE7DBC7C42AB35AA34A933AD
:10167B00A832120A9E505E7BFF7A1A79297D017F70
:10168B0001121ABC7BFF7A1A79297D017F02121A8B
:10169B00BCC2B1C2B2C2B3C2B4C2B5D2B6C2B77BBE
:1016AB00FF7A1A799A7D017F01121ABC7BFF7A1A95
:1016BB00794B7D017F02121ABC7B007A00794812AC
:1016CB001AEC7BFF7A1A7953121AEC7F647E0012A4
:1016DB001B1F0213467BFF7A1A79297D017F0112AA
:1016EB001ABC7BFF7A1A79297D017F02121ABCC2C0
:1016FB00B1C2B2C2B3C2B4C2B5C2B6D2B77BFF7A63
:10170B001A79AB7D017F01121ABC7BFF7A1A794BD8
:10171B007D017F02121ABC7B007A007948121AEC09
:10172B007BFF7A1A7953121AEC7F647E00121B1F0F
:03173B0002134650
:10080000020B8AE86480F8E933E83360110460F091
:10081000ED33EC337009E8FCE9FDEAFEEBFF22045E
:1008200060DED3EB9FEA9EE99DE8C2E78CF0C2F759
:1008300095F0400CE8CCF8E9CDF9EACEFAEBCFFB25
:10084000120B5585D0F05804700320D5B3E804701E
:10085000075002B2D5020B9492D5EC0460F7E4CCB9
:10086000C0E0C398F8603B94186008400DD0E0FBEE
:10087000020B6CE4FBFAC9FC8028E830E406E4C90A
:10088000FBE4CAFCE830E305E4C9CACBFCE8540742
:100890006010F8C3E913F9EA13FAEB13FBEC13FC4D
:1008A000D8F130F52FC3E49CFCEF9BFFEE9AFEEDF0
:1008B00099FDD0E0FBEF4E4D4C701222DB03020B92
:1008C00091EC2CFCEF33FFEE33FEED33FDED30E722
:1008D000EB020B6CEF2BFFEE3AFEED39FDD0E0FBA7
:1008E00050130BBB0003020B94ED13FDEE13FEEF50
:0808F00013FFEC13FC020B6C7A
:1008F800EC4D6011E8497017ED33EC3304600DE4FA
:10090800FCFFFEFD22E933E8330470F8020B8A127B
:100918000B5558046009E4CC24815006285009027C
:100928000B94284003020B91C0E0EB4A7044B98055
:1009380006D0E0FB020B80EF4E701CBD8008EBFF79
:10094800EAFEE9FD80EBE98DF0A4FEE5F00209E19D
:10095800E9CDF9EAFEEBFFEF89F0A4FCE5F0CE89DA
:10096800F0A42EFFE435F0CD89F0A42DFEE435F097
:100978008067EF4E7005BD80D780C3EF8BF0A4ACC5
:10098800F0EE8BF0A42CFCE435F0F8EF8AF0A42C00
:10099800E5F038FCE433CB8DF0A42CFCE5F03BF813
:1009A800EE8AF0A42CFCE5F038F8E433CF89F0A403
:1009B8002CFCE5F038CF3400CE89F0A42FFFE5F009
:1009C8003EFEE433C98DF0A42EFEE5F039CD8AF061
:1009D800A42FFFE5F03EFEE43DFD33D0E0FB5007D9
:1009E8000BBB000F020B94EC2CFCEF33FFEE33FE35
:0609F800ED33FD020B6C63
:1009FE00020B94EC5D046005E859047003020B8A47
:100A0E00120B55580460F6EC4860F2EC7004FDFED3
:100A1E00FF22C860DB2481C85009C39860025006CB
:100A2E00020B919850CAF582E9294B4A7005AB82A8
:100A3E00020B8075F0007C1A7880C3EF9BEE9AED66
:100A4E0099400DC3EF9BFFEE9AFEED99FDE842F043
:100A5E00DC23ACF0D0E0FFD0E0FED0E0FDAB822096
:100A6E00E7101BEB60BAEC2CFCEF33FFEE33FEED20
:100A7E0033FD020B6CE803F830E705C0F075F000AB
:100A8E00EF2FFFEE33FEED33FD40B830E7C280AA04
:100A9E0074F8CC6480CCC86480C8F58204604FC3FF
:100AAE00EB9FF5F0EA9E42F0E99D42F0E89C45F09E
:100ABE00603C501DE5825FFFE582D313CB5BCBF428
:100ACE002B5582FB50280ABA002409B90020088051
:100ADE001DE5825BFBE582D313CF5FCFF4C3132FEB
:100AEE005582FF50090EBE00050DBD00010CC3EB73
:100AFE009FF5F0EA9E42F0E99D42F0E89C45F060D9
:090B0E0007CC4820E701B3EC22FA
:100B170075F020800E75F010800575F0087D007E59
:100B2700007F003392D530D503120E48EC334010C6
:100B3700EF33FFEE33FEED33FDEC33FCD5F0ED2262
:0E0B4700E5F0247EA2D513CC92E7CDCEFF229E
:100EAC00E5692455F8E60569227852300702785531
:100EBC00E475F001120E76020DF02000EB7F2ED2BD
:100ECC00008018EF540F2490D43440D4FF30040B1E
:100EDC00EF24BFB41A0050032461FFE56A600215C9
:100EEC006A056DE56D7002056C30070D7852E4757E
:100EFC00F001120E76EF020E36021B3F7403D2077E
:100F0C008003E4C207F5698B528A538954E4F56A6D
:100F1C00F56CF56DE56A60077F20120EE780F575BC
:100F2C006BFFC201C200C202C203C205C206C208E4
:100F3C00120EB5FF700D3007057F00120EF8AF6D65
:100F4C00AE6C22B4255FC2D5C204120EB5FF24D0FC
:100F5C00B40A00501A75F00A786A30D50508B6FF45
:100F6C000106C6A426F620D5047002D20380D9242B
:100F7C00CFB41A00EF5004C2E5D2040211E5D2013D
:100F8C0080C6D20080C0D20280BCD2D580BAD20535
:100F9C0080B47F20120EE72002077401B56A00406E
:100FAC00F1120EACFF120EE7020F20D208D206800F
:100FBC0095120EACFB120EACFA120EACF94A4B7039
:100FCC000679DC7A127BFF20022EE56A602A7E000D
:100FDC008E82758300120E0960060EEE656B70F042
:100FEC00C2D5EBC0E0EAC0E0E9C0E0EE121245D099
:100FFC00E0F9D0E0FAD0E0FB120DF0FF60AAEBC0F4
:10100C00E0EAC0E0E9C0E0120EE7D0E02401F9D03C
:10101C00E03400FAD0E0FBE56B0460DCD56BD980E2
:10102C0087D20280A212122860F7E56B70010412BD
:10103C000C01A96B600DE56B600914F56B1212CFF6
:10104C00EF60F3EA30E702F404C3995077EAF42531
:10105C006B0430E701E404F56B800D12122860C1BB
:10106C00EA056B256B120C01EA7868F630E701E4AF
:10107C00256B04D56B0420050114121245E4C0E065
:10108C001212CF7868E6601320E70714F6120ECF21
:10109C00802204F6D0E014C0E07F00120ECFE56B86
:1010AC006007120EC6156B800B300503120EC6D0EE
:1010BC00E0020F20D0E00480C512122860A0E56B7E
:1010CC0004120C017868EAF6E56B20050260010455
:0510DC0024041212457E
:1010E10074FF04C0E01212CF120ECFE56B2005028F
:1010F1006003120EC6D0E0B56BE87F45120ED978B9
:1011010068E67F2B30E7047F2DF404C0E0120EE780
:10111100D0E075F00A84C0F0120ED0D0E0120ED0EB
:10112100020F20791080027908C206C2088008D215
:10113100D5790A8004790AC2D5E56B047002F56B92
:10114100E4FAFDFEFF120EACFC7B08200113120E27
:10115100ACFD7B1030000A120EACFE120EACFF7B10
:1011610020EC3382D592D55013C3E43000069FFFA3
:10117100E49EFEE42001039DFDE49CFCE4CBF8C267
:1011810001EC700CCFCECDCCE824F8F870F38017C9
:10119100C3EF33FFEE33FEED33FDEC33FCEB33FBFA
:1011A100994002FB0FD8E9EB300105F8D0E0C448C3
:1011B100B201C0E00AEC4D4E4F78207B0070C2EACC
:1011C100B56B0040BCC0E0121247D0F0D0E0200166
:1011D10004C4C0E0C4B201C0F0120ED0D0F0D5F00A
:1011E100EB020F20120E860FBD531124580F8E4CA7
:1011F1000F8A4211284F1130441130490FA3431176
:10120100365510674610C54510314712FC500F92F4
:101211002D0F962E0FB92B0F9A230FB72012E52A07
:101221000F524800000FB1E56BB4FF03756B061256
:101231000EACFC120EACFD120EACFE120EACFF7821
:1012410061020C30790AA2D5200314300509B910C6
:10125100020404B9080104A2D520060250010420A9
:1012610002689202B56A005034C0E07F2030031951
:101271007F30A20272067205500F12129EC202C284
:1012810006C205C2087F30800F300503E9C0E012B5
:101291000EE7300503D0E0F9D0E0B56ACC30051790
:1012A1007F30B9100C120EE77F583004077F788029
:1012B10003B90803120EE73002057F2D020EE77F06
:1012C100202008F87F2B2006F322920280CF7F0096
:1012D100B4070050052461F8E6FF22286E756C6C96
:1012E1002900D201120EAC3001F8C201786A30D562
:1012F1000108F6020F522D50434958120EAC240337
:10130100B405004001E49012F793120ED8743A121A
:0A1311000ED8D203756A04021124FD
:101873008F558E548D538C52E4FFFE7D807C3FAB9D
:1018830055AA54A953A852120A9E7009AF55AE54D3
:10189300AD53AC5222AF55AE54AD53AC52120B9F65
:1018A300FBAF59AE58AD57AC56120B9FFFBF0108A3
:1018B300E4FFFE7D807C3F22EF64046022EB64043E
:1018C300601DBB0127E4FFFEFDFCAB59AA58A957D5
:1018D300A856120A9E60084006E4FFFEFDFC22742F
:1018E300FFF559F558F557F556021981E4F55AF500
:1018F3005BFFFEFDFCAB55AA54A953A852120A9EE6
:10190300504BAF59AE58AD57AC56120BCA8E5A8FC7
:101913005BAC5AAD5BEC120B1CC8ECC8C9EDC9CA71
:10192300EECACBEFCBAF59AE58AD57AC5612080346
:10193300E4FBFAF9F8120A9E70A5AF55AE54AD5305
:10194300AC52120BB98F558E548D538C52AF55AE8A
:1019530054AD53AC52121772AB59AA58A957A85693
:101963001208F81219C28F598E588D578C56E55BA1
:1019730030E00B120BB98F598E588D578C56AF59D7
:07198300AE58AD57AC56222F
:100B5500E9D2E7C933E833F892D5EDD2E7CD33ECE6
:070B650033FC5002B2D5225F
:100B6C00EC30E7100FBF000C0EBE00080DBD0004EA
:100B7C000BEB6014A2D5EB13FCED92E7FD2274FF96
:100B8C00FCFDFEFF22E480F8A2D574FF13FC7D80EF
:030B9C00E480EF03
:100B9F00ED33EC33601004700FED547F7005740269
:0A0BAF0092E0227404220422E422E2
:100BB900ED33EC33600A047003BD8004ECB2E7FC4A
:010BC9002209
:100BCA00EDD2E7CD33EC3392D524814006E4FFFE23
:100BDA00FDFC22FCE4CFCECDCC24E0501174FF8082
:100BEA00EDC3CC13CCCD13CDCE13CECF13CF04701F
:070BFA00F030D5DE020E48C9
:100C0100F920E72824F950037907E4F42402FB18BA
:100C1100DBFDE624FB5014E9600DE4F618E604F66A
:0F0C2100B40A08E4F6D9F57401F60A22C2D52206
:100C3000ED33EC3392D5FA602AB4FF33EDC2E77B93
:100C4000FF60067A0C7955E4227A0C795E20D5048F
:100C50007A0C7959224E614E002B494E46002D499F
:100C60004E4600E47A08F608DAFC7B00740722E8B6
:100C7000C0E0ECC0E0EDC0E0EEC0E0EFC0E0EA753F
:100C8000F010A4CAABF075F04DA42BFBE435F0FCDA
:100C9000EA2410FAEB34C5FBEC34D9FCEDC2E7FFD3
:100CA00075F056A4F42411C5F0F434C58FF0A42ACD
:100CB000E5F03BE43CF620E714120D63D0E0FFD0F2
:100CC000E0FED0E0FDD0E0FC120A018014F4041232
:100CD0000D63D0E0FFD0E0FED0E0FDD0E0FC1208D4
:100CE000F8D0E0F8E6FAEDD2E7CD33EC332482FB1E
:100CF000E4C3CF33CFCE33CECD33CD33DBF37B075D
:100D000075F00A846004F6081B0AE5F0F6088FF017
:100D1000740AA4FFACF08EF0740AA42CFEACF05060
:100D2000010C8DF0740AA42CFDE435F0F608DBDE2E
:030D300074072223
:10198A0033DA929E35B16011377FE5FE39218489B9
:10199A003AAEC3FF3C1D955B3D6358473E75FDF06B
:1019AA003F3172183F800000C2D5020B94020B8AA5
:1019BA00BD80FA50F3020B91ED33EC330460F17BF6
:1019CA003B7AAA79B8783F1208F8ED33EC3392D50E
:1019DA00247B5011A2D570DB500BED4480240450B7
:1019EA0004A2D580CEEFFBEEFAEDF9ECF8120BCAA1
:1019FA00EFF582F404FC120B21120807C082901939
:101A0A008A7409120DB2ED33CC33D0F092D525F099
:0A1A1A00A2D57001C313CC13FD2206
:10173E003E9248DA3ECCCCCD3F2AAAAB4000000008
:10174E003F8000003F9837F03FB504F33FD744FC8D
:10175E003E3172173EB172173F0515913EDE5BD9D1
:10176E00D2008002C200EDD2E7F8CD33EC33047024
:10177E000BBD800592D5020B94020B8A40FBD3144D
:10178E0060F2F5F07C3FEE7A00C39496C8948B40DD
:10179E00230AC89469C8941A401A0AC89468C8944F
:1017AE001F40110AC8945AC89425400805F07A00C3
:1017BE00CDC2E7CDC0F08C5C8D5D8E5E8F5FEA236F
:1017CE0023C0E0244EF582E43417F583120E661220
:1017DE000807ECC0E0EDC0E0EEC0E0EFC0E0120E96
:1017EE0056A85CA95DAA5EAB5F120803D0E0FBD0E1
:1017FE00E0FAD0E0F9D0E0B2E7F8120A018C5C8D85
:10180E005D8E5E8F5F90173E7403120DA3A85CA9C8
:10181E005DAA5EAB5F1208F8D0E0600F245AF58225
:10182E00E43417F583120E661208078C5C8D5D8EFC
:10183E005E8F5FD0E0C3947FFDE49400FC120B1C1E
:10184E007B187A727931783F1208F8A85CA95DAAE4
:10185E005EAB5F12080730000B7BD97A5B79DE78BE
:05186E003E1208F82203
:100D33003F8000004120000042C80000447A0000C8
:100D4300461C400047C35000497424004B1896804A
:100D53004CBEBC205A0E1BCA6753C21C749DC5AE41
:100D6300FB60065407601C2323120D91EB5438607B
:100D730009120D7D120D8C1208F8ECF8EDF9EEFA5C
:100D8300EFCB22EB120D8C80F1543803241C900D11
:100D930033FE93FC0EEE93FD0EEE930ECE93FF22E5
:100DA300C0E0EFFBEEFAEDF9ECF81208F8D0E0F54D
:100DB300F0EFFBEEFAEDF9ECF8120E56A3A3A3A3A2
:100DC300E8C0E0E9C0E0EAC0E0EBC0E0C0F0120830
:100DD300F8120E66A3A3A3A3120807D0F0D0E0FB7A
:0D0DE300D0E0FAD0E0F9D0E0F8D5F0D4224D
:100DF000BB010689828A83E0225002E722BBFE0201
:090E0000E32289828A83E4932233
:100E0900BB010CE58229F582E5833AF583E022509E
:100E190006E92582F8E622BBFE06E92582F8E222E8
:0D0E2900E58229F582E5833AF583E4932202
:100E3600BB010689828A83F0225002F722BBFE019B
:020E4600F32295
:0E0E4800C3E49FFFE49EFEE49DFDE49CFC22BB
:100E5600E493FC740193FD740293FE740393FF22E2
:100E6600E493F8740193F9740293FA740393FB22E2
:100E7600FAE6FB0808E6F925F0F618E6CA3AF6227D
:100E8600D083D082F8E4937012740193700DA3A3FB
:100E960093F8740193F5828883E47374029368600F
:060EA600EFA3A3A380DF0F
:101B3F00EFB40A07740D121B4A740A309811A89952
:101B4F00B8130CC2983098FDA899C298B811F63006
:071B5F0099FDC299F59922DE
:00000001FF
